{
  "contractName": "BeekeeperContract",
  "abi": [
    {
      "constant": false,
      "inputs": [
        {
          "name": "hiveId",
          "type": "uint256"
        }
      ],
      "name": "checkBeesState",
      "outputs": [
        {
          "name": "isOrganicHoney",
          "type": "bool"
        }
      ],
      "payable": false,
      "stateMutability": "nonpayable",
      "type": "function"
    },
    {
      "constant": false,
      "inputs": [
        {
          "name": "hiveId",
          "type": "uint256"
        }
      ],
      "name": "checkTemperatureSensorsValues",
      "outputs": [
        {
          "name": "isTemperatureOkay",
          "type": "bool"
        }
      ],
      "payable": false,
      "stateMutability": "nonpayable",
      "type": "function"
    },
    {
      "constant": false,
      "inputs": [
        {
          "name": "hiveId",
          "type": "uint256"
        }
      ],
      "name": "checkHumiditySensorsValues",
      "outputs": [
        {
          "name": "isHumidityOkay",
          "type": "bool"
        }
      ],
      "payable": false,
      "stateMutability": "nonpayable",
      "type": "function"
    },
    {
      "constant": false,
      "inputs": [
        {
          "name": "hiveId",
          "type": "uint256"
        }
      ],
      "name": "checkCo2SensorsValues",
      "outputs": [
        {
          "name": "isCo2Okay",
          "type": "bool"
        }
      ],
      "payable": false,
      "stateMutability": "nonpayable",
      "type": "function"
    },
    {
      "constant": false,
      "inputs": [
        {
          "name": "hiveId",
          "type": "uint256"
        }
      ],
      "name": "checkWeightSensorsValues",
      "outputs": [
        {
          "name": "isWeightOkay",
          "type": "bool"
        }
      ],
      "payable": false,
      "stateMutability": "nonpayable",
      "type": "function"
    },
    {
      "constant": false,
      "inputs": [
        {
          "name": "hiveId",
          "type": "uint256"
        }
      ],
      "name": "checkHoneyQuality",
      "outputs": [
        {
          "name": "isBeesStateOkay",
          "type": "bool"
        }
      ],
      "payable": false,
      "stateMutability": "nonpayable",
      "type": "function"
    }
  ],
  "bytecode": "0x608060405234801561001057600080fd5b506106ff806100206000396000f3fe6080604052600436106100775763ffffffff7c0100000000000000000000000000000000000000000000000000000000600035041663809e925d811461007c57806392887113146100ba578063aaf463c8146100e4578063cdc7d6f21461010e578063dff98fc014610138578063f488292e14610162575b600080fd5b34801561008857600080fd5b506100a66004803603602081101561009f57600080fd5b503561018c565b604080519115158252519081900360200190f35b3480156100c657600080fd5b506100a6600480360360208110156100dd57600080fd5b5035610271565b3480156100f057600080fd5b506100a66004803603602081101561010757600080fd5b503561035a565b34801561011a57600080fd5b506100a66004803603602081101561013157600080fd5b5035610440565b34801561014457600080fd5b506100a66004803603602081101561015b57600080fd5b503561051c565b34801561016e57600080fd5b506100a66004803603602081101561018557600080fd5b50356105fc565b60008181526001602052604081205460289060329015156101e5576040805160e560020a62461bcd02815260206004820152601360248201526000805160206106b4833981519152604482015290519081900360640190fd5b600084815260016020526040812060040154831180159061021757506000858152600160205260409020600401548210155b9050801561024a576000858152600160205260409020600701805465ff0000000000191665010000000000179055610269565b6000858152600160205260409020600701805465ff0000000000191690555b505050919050565b600081815260016020526040812054605090605a9015156102ca576040805160e560020a62461bcd02815260206004820152601360248201526000805160206106b4833981519152604482015290519081900360640190fd5b60008481526001602052604081206006015483118015906102fc57506000858152600160205260409020600601548210155b90508015610333576000858152600160205260409020600701805467ff000000000000001916670100000000000000179055610269565b505050600091825260016020526040909120600701805467ff000000000000001916905590565b600081815260016020526040812054603c9060469015156103b3576040805160e560020a62461bcd02815260206004820152601360248201526000805160206106b4833981519152604482015290519081900360640190fd5b60008481526001602052604081206005015483118015906103e557506000858152600160205260409020600501548210155b9050801561041a576000858152600160205260409020600701805466ff00000000000019166601000000000000179055610269565b505050600091825260016020526040909120600701805466ff0000000000001916905590565b60008061044c836105fc565b905060006104598461051c565b905060006104668561018c565b905060006104738661035a565b9050600061048087610271565b600088815260016020526040902060070154909150610100900460ff168580156104a75750845b80156104b05750835b80156104b95750825b80156104c25750815b80156104cb5750805b156104f5576000888152600160205260409020600701805462ff0000191662010000179055610511565b6000888152600160205260409020600701805462ff0000191690555b505050505050919050565b600081815260016020526040812054601490601e901515610575576040805160e560020a62461bcd02815260206004820152601360248201526000805160206106b4833981519152604482015290519081900360640190fd5b60008481526001602052604081206003015483118015906105a757506000858152600160205260409020600301548210155b905080156105d8576000858152600160205260409020600701805464ff000000001916640100000000179055610269565b505050600091825260016020526040909120600701805464ff000000001916905590565b600081815260016020526040812054151561064f576040805160e560020a62461bcd02815260206004820152601360248201526000805160206106b4833981519152604482015290519081900360640190fd5b60008281526001602052604090206007015460ff161515610691576000828152600160205260409020600701805463ff000000191663010000001790556106ae565b6000828152600160205260409020600701805463ff000000191690555b91905056fe4869766520646f6573206e6f7420657869737400000000000000000000000000a165627a7a7230582079c25fdfc1d330915c7acd4a16873265dc348c892d150756701eadd63b1f7da80029",
  "source": "// SPDX-License-Identifier: SEE LICENSE IN LICENSE\r\npragma solidity ^0.5.0;\r\n\r\ncontract BeekeeperContract {\r\n   // structure of the beekeepers\r\n   struct Beekeeper {\r\n    uint beekeeperId;\r\n    uint[] hiveIds;\r\n    address beekeeperAddress;\r\n   }\r\n   //structure of the hives\r\n   struct Hive {\r\n    uint hiveId;\r\n    uint beekeeperId; \r\n    uint gpsLocation;\r\n    uint sensorTemperatureValue;\r\n    uint sensorHumidityValue;\r\n    uint sensorCO2Value;\r\n    uint sensorWeightValue;\r\n    bool hasPests;\r\n    bool hasDiseases;\r\n    bool isBeesStateOkay;\r\n    bool isOrganicHoney;\r\n    bool isTemperatureOkay;\r\n    bool isHumidityOkay;\r\n    bool isCo2Okay;\r\n    bool isWeightOkay;\r\n   }\r\n    // mapping both beekeepers and hives\r\n    mapping(uint => Beekeeper) beekeepers;\r\n    mapping(uint => Hive) hives;\r\n\r\n    // fucntion to check the bees state normal or not according to the udage of pests or having diseases\r\n   function checkBeesState(uint hiveId) public returns (bool isOrganicHoney) {\r\n    //check the existence of the hive id \r\n    require(hives[hiveId].hiveId != 0, \"Hive does not exist\");\r\n    // update of the value of isBeesStateOkay according to the value of hasPestsOrDiseases\r\n    if (!hives[hiveId].hasPests) {\r\n        hives[hiveId].isOrganicHoney = true;\r\n      } else {\r\n        hives[hiveId].isOrganicHoney = false;\r\n      }\r\n    // after the traitment return the value of the isBeesState okay\r\n    return isOrganicHoney;\r\n   }\r\n    //check the value of the temperature sensor in acceptable range or not\r\n   function checkTemperatureSensorsValues(uint hiveId) public returns (bool isTemperatureOkay) {\r\n    //declare variables\r\n    uint minTemperature = 20;\r\n    uint maxTemperature = 30;\r\n    //check the existence of the hive id \r\n    require(hives[hiveId].hiveId != 0, \"Hive does not exist\");\r\n    // check the range of temperature coming for sensors \r\n    bool temperatureSensorState = (hives[hiveId].sensorTemperatureValue >= minTemperature) && (hives[hiveId].sensorTemperatureValue <= maxTemperature);\r\n    //check if the value of the humidity sensor is okay or not\r\n    if (temperatureSensorState) {\r\n        hives[hiveId].isTemperatureOkay = true;\r\n      } else {\r\n        hives[hiveId].isTemperatureOkay = false;\r\n      }\r\n    // after the traitment return the state of the temperature\r\n    return isTemperatureOkay;\r\n   }\r\n   //check the value of the humidty sensor in acceptable range or not\r\n   function checkHumiditySensorsValues(uint hiveId) public returns (bool isHumidityOkay) {\r\n    //declare variables\r\n    uint minHumidity = 40;\r\n    uint maxHumidity = 50;\r\n    //check the existence of the hive id \r\n    require(hives[hiveId].hiveId != 0, \"Hive does not exist\");\r\n    // check the range of humidity coming for sensors \r\n    bool humiditySensorState = (hives[hiveId].sensorHumidityValue >= minHumidity) && (hives[hiveId].sensorHumidityValue <= maxHumidity);\r\n    //check if the value of the humidity sensor is okay or not\r\n    if (humiditySensorState) {\r\n        hives[hiveId].isHumidityOkay = true;\r\n      } else {\r\n        hives[hiveId].isHumidityOkay = false;\r\n      }\r\n    // after the traitment return the state of the humidity\r\n    return isHumidityOkay;\r\n   }\r\n   //check the value of the co2  sensor in acceptable range or not\r\n   function checkCo2SensorsValues(uint hiveId) public returns (bool isCo2Okay) {\r\n    //declare variables\r\n    uint minCo2 = 60;\r\n    uint maxCo2 = 70;\r\n    //check the existence of the hive id \r\n    require(hives[hiveId].hiveId != 0, \"Hive does not exist\");\r\n    // check the range of co2 coming for sensors \r\n    bool co2SensorState = (hives[hiveId].sensorCO2Value >= minCo2) && (hives[hiveId].sensorCO2Value <= maxCo2);\r\n    //check if the value of the co2 sensor is okay or not\r\n    if (co2SensorState) {\r\n        hives[hiveId].isCo2Okay = true;\r\n      } else {\r\n        hives[hiveId].isCo2Okay = false;\r\n      }\r\n    // after the traitment return the state of the co2\r\n    return isCo2Okay;\r\n   }\r\n   //check the value of the weight sensor in acceptable range or not\r\n   function checkWeightSensorsValues(uint hiveId) public returns (bool isWeightOkay) {\r\n    //declare variables\r\n    uint minWeight = 80;\r\n    uint maxWeight = 90;\r\n    //check the existence of the hive id \r\n    require(hives[hiveId].hiveId != 0, \"Hive does not exist\");\r\n    // check the range of co2 coming for sensors \r\n    bool weightSensorState = (hives[hiveId].sensorWeightValue >= minWeight) && (hives[hiveId].sensorWeightValue <= maxWeight);\r\n    //check if the value of the co2 sensor is okay or not\r\n    if (weightSensorState) {\r\n        hives[hiveId].isWeightOkay = true;\r\n      } else {\r\n        hives[hiveId].isWeightOkay = false;\r\n      }\r\n    // after the traitment return the state of the weight\r\n    return isWeightOkay;\r\n   }\r\n   // function to check the quality of honey organic or not according to the return of the previous function and the sensors informations\r\n   function checkHoneyQuality(uint hiveId) public returns (bool isBeesStateOkay) {\r\n     // have the value of the return of the function checkBeesState to use its return value\r\n     bool beesState = checkBeesState(hiveId);\r\n     bool temperatureState = checkTemperatureSensorsValues(hiveId);\r\n     bool humidityState = checkHumiditySensorsValues(hiveId);\r\n     bool co2State = checkCo2SensorsValues(hiveId);\r\n     bool weightState = checkWeightSensorsValues(hiveId);\r\n     bool has_diseases = hives[hiveId].hasDiseases;\r\n     //check if all there bool variables returns true then honey is organic \r\n     if (beesState && temperatureState && humidityState && co2State && weightState && has_diseases) {\r\n         hives[hiveId].isBeesStateOkay = true;\r\n     } else {\r\n         hives[hiveId].isBeesStateOkay = false;\r\n     }\r\n     return isBeesStateOkay;\r\n   }\r\n}\r\n\r\n\r\n\r\n",
  "sourcePath": "C:/Users/asmab/Desktop/pfe/project/honey-blockchain/contracts/BeekeeperContract.sol",
  "compiler": {
    "name": "solc",
    "version": "0.5.0+commit.1d4f565a.Emscripten.clang"
  },
  "schemaVersion": "3.0.1",
  "updatedAt": "2024-04-03T16:31:38.837Z",
  "devdoc": {
    "methods": {}
  },
  "userdoc": {
    "methods": {}
  }
}