{
  "contractName": "BeekeeperContract",
  "abi": [
    {
      "inputs": [
        {
          "name": "_ganacheAddresses",
          "type": "address[]"
        }
      ],
      "payable": false,
      "stateMutability": "nonpayable",
      "type": "constructor",
      "signature": "constructor"
    },
    {
      "constant": false,
      "inputs": [
        {
          "name": "beekeeperId",
          "type": "uint256"
        }
      ],
      "name": "registerBeekeeper",
      "outputs": [],
      "payable": false,
      "stateMutability": "nonpayable",
      "type": "function",
      "signature": "0x59f606c3"
    },
    {
      "constant": true,
      "inputs": [
        {
          "name": "beekeeperId",
          "type": "uint256"
        }
      ],
      "name": "getBeekeeperAddress",
      "outputs": [
        {
          "name": "",
          "type": "address"
        }
      ],
      "payable": false,
      "stateMutability": "view",
      "type": "function",
      "signature": "0xb137ca64"
    },
    {
      "constant": false,
      "inputs": [
        {
          "name": "hiveId",
          "type": "uint256"
        }
      ],
      "name": "checkBeesState",
      "outputs": [
        {
          "name": "isOrganicHoney",
          "type": "bool"
        }
      ],
      "payable": false,
      "stateMutability": "nonpayable",
      "type": "function",
      "signature": "0xf488292e"
    },
    {
      "constant": false,
      "inputs": [
        {
          "name": "hiveId",
          "type": "uint256"
        }
      ],
      "name": "checkTemperatureSensorsValues",
      "outputs": [
        {
          "name": "isTemperatureOkay",
          "type": "bool"
        }
      ],
      "payable": false,
      "stateMutability": "nonpayable",
      "type": "function",
      "signature": "0xdff98fc0"
    },
    {
      "constant": false,
      "inputs": [
        {
          "name": "hiveId",
          "type": "uint256"
        }
      ],
      "name": "checkHumiditySensorsValues",
      "outputs": [
        {
          "name": "isHumidityOkay",
          "type": "bool"
        }
      ],
      "payable": false,
      "stateMutability": "nonpayable",
      "type": "function",
      "signature": "0x809e925d"
    },
    {
      "constant": false,
      "inputs": [
        {
          "name": "hiveId",
          "type": "uint256"
        }
      ],
      "name": "checkCo2SensorsValues",
      "outputs": [
        {
          "name": "isCo2Okay",
          "type": "bool"
        }
      ],
      "payable": false,
      "stateMutability": "nonpayable",
      "type": "function",
      "signature": "0xaaf463c8"
    },
    {
      "constant": false,
      "inputs": [
        {
          "name": "hiveId",
          "type": "uint256"
        }
      ],
      "name": "checkWeightSensorsValues",
      "outputs": [
        {
          "name": "isWeightOkay",
          "type": "bool"
        }
      ],
      "payable": false,
      "stateMutability": "nonpayable",
      "type": "function",
      "signature": "0x92887113"
    },
    {
      "constant": false,
      "inputs": [
        {
          "name": "hiveId",
          "type": "uint256"
        }
      ],
      "name": "checkHoneyQuality",
      "outputs": [
        {
          "name": "isBeesStateOkay",
          "type": "bool"
        }
      ],
      "payable": false,
      "stateMutability": "nonpayable",
      "type": "function",
      "signature": "0xcdc7d6f2"
    }
  ],
  "bytecode": "0x608060405234801561001057600080fd5b50604051610a2b380380610a2b8339810180604052602081101561003357600080fd5b81019080805164010000000081111561004b57600080fd5b8201602081018481111561005e57600080fd5b815185602082028301116401000000008211171561007b57600080fd5b5050929190505050600a8151101515156100f657604080517f08c379a000000000000000000000000000000000000000000000000000000000815260206004820152601f60248201527f496e73756666696369656e74206164647265737365732070726f766964656400604482015290519081900360640190fd5b60005b600a81101561015057818181518110151561011057fe5b6020908102919091018101516000838152600290925260409091208054600160a060020a031916600160a060020a039092169190911790556001016100f9565b50506108ca806101616000396000f3fe60806040526004361061008d5763ffffffff7c010000000000000000000000000000000000000000000000000000000060003504166359f606c38114610092578063809e925d146100be57806392887113146100fc578063aaf463c814610126578063b137ca6414610150578063cdc7d6f2146101a3578063dff98fc0146101cd578063f488292e146101f7575b600080fd5b34801561009e57600080fd5b506100bc600480360360208110156100b557600080fd5b5035610221565b005b3480156100ca57600080fd5b506100e8600480360360208110156100e157600080fd5b50356102d4565b604080519115158252519081900360200190f35b34801561010857600080fd5b506100e86004803603602081101561011f57600080fd5b50356103b9565b34801561013257600080fd5b506100e86004803603602081101561014957600080fd5b50356104a2565b34801561015c57600080fd5b5061017a6004803603602081101561017357600080fd5b5035610588565b6040805173ffffffffffffffffffffffffffffffffffffffff9092168252519081900360200190f35b3480156101af57600080fd5b506100e8600480360360208110156101c657600080fd5b503561060b565b3480156101d957600080fd5b506100e8600480360360208110156101f057600080fd5b50356106e7565b34801561020357600080fd5b506100e86004803603602081101561021a57600080fd5b50356107c7565b600a8110610279576040805160e560020a62461bcd02815260206004820152601960248201527f4265656b6565706572204944206f7574206f662072616e676500000000000000604482015290519081900360640190fd5b60008181526020818152604080832093845560028083529083205492909152909101805473ffffffffffffffffffffffffffffffffffffffff191673ffffffffffffffffffffffffffffffffffffffff909216919091179055565b600081815260016020526040812054602890603290151561032d576040805160e560020a62461bcd028152602060048201526013602482015260008051602061087f833981519152604482015290519081900360640190fd5b600084815260016020526040812060040154831180159061035f57506000858152600160205260409020600401548210155b90508015610392576000858152600160205260409020600701805465ff00000000001916650100000000001790556103b1565b6000858152600160205260409020600701805465ff0000000000191690555b505050919050565b600081815260016020526040812054605090605a901515610412576040805160e560020a62461bcd028152602060048201526013602482015260008051602061087f833981519152604482015290519081900360640190fd5b600084815260016020526040812060060154831180159061044457506000858152600160205260409020600601548210155b9050801561047b576000858152600160205260409020600701805467ff0000000000000019166701000000000000001790556103b1565b505050600091825260016020526040909120600701805467ff000000000000001916905590565b600081815260016020526040812054603c9060469015156104fb576040805160e560020a62461bcd028152602060048201526013602482015260008051602061087f833981519152604482015290519081900360640190fd5b600084815260016020526040812060050154831180159061052d57506000858152600160205260409020600501548210155b90508015610562576000858152600160205260409020600701805466ff000000000000191666010000000000001790556103b1565b505050600091825260016020526040909120600701805466ff0000000000001916905590565b6000600a82106105e2576040805160e560020a62461bcd02815260206004820152601960248201527f4265656b6565706572204944206f7574206f662072616e676500000000000000604482015290519081900360640190fd5b5060009081526002602052604090205473ffffffffffffffffffffffffffffffffffffffff1690565b600080610617836107c7565b90506000610624846106e7565b90506000610631856102d4565b9050600061063e866104a2565b9050600061064b876103b9565b600088815260016020526040902060070154909150610100900460ff168580156106725750845b801561067b5750835b80156106845750825b801561068d5750815b80156106965750805b156106c0576000888152600160205260409020600701805462ff00001916620100001790556106dc565b6000888152600160205260409020600701805462ff0000191690555b505050505050919050565b600081815260016020526040812054601490601e901515610740576040805160e560020a62461bcd028152602060048201526013602482015260008051602061087f833981519152604482015290519081900360640190fd5b600084815260016020526040812060030154831180159061077257506000858152600160205260409020600301548210155b905080156107a3576000858152600160205260409020600701805464ff0000000019166401000000001790556103b1565b505050600091825260016020526040909120600701805464ff000000001916905590565b600081815260016020526040812054151561081a576040805160e560020a62461bcd028152602060048201526013602482015260008051602061087f833981519152604482015290519081900360640190fd5b60008281526001602052604090206007015460ff16151561085c576000828152600160205260409020600701805463ff00000019166301000000179055610879565b6000828152600160205260409020600701805463ff000000191690555b91905056fe4869766520646f6573206e6f7420657869737400000000000000000000000000a165627a7a7230582032eed9fc227e99a92b7fc01dc3c858ec07bda60217e3d8788ab61239502db6dd0029",
  "source": "// SPDX-License-Identifier: SEE LICENSE IN LICENSE\r\npragma solidity ^0.5.0;\r\n\r\ncontract BeekeeperContract {\r\n   // structure of the beekeepers\r\n   struct Beekeeper {\r\n    uint beekeeperId;\r\n    uint[] hiveIds;\r\n    address beekeeperAddress;\r\n   }\r\n   //structure of the hives\r\n   struct Hive {\r\n    uint hiveId;\r\n    uint beekeeperId; \r\n    uint gpsLocation;\r\n    uint sensorTemperatureValue;\r\n    uint sensorHumidityValue;\r\n    uint sensorCO2Value;\r\n    uint sensorWeightValue;\r\n    bool hasPests;\r\n    bool hasDiseases;\r\n    bool isBeesStateOkay;\r\n    bool isOrganicHoney;\r\n    bool isTemperatureOkay;\r\n    bool isHumidityOkay;\r\n    bool isCo2Okay;\r\n    bool isWeightOkay;\r\n   }\r\n    // mapping both beekeepers and hives\r\n    mapping(uint => Beekeeper) beekeepers;\r\n    mapping(uint => Hive) hives;\r\n    mapping(uint256 => address) private beekeeperAddresses;\r\n\r\n    constructor(address[] memory _ganacheAddresses) public {\r\n        require(_ganacheAddresses.length >= 10, \"Insufficient addresses provided\");\r\n\r\n        // Assign each Beekeeper ID to one of the Ganache addresses\r\n        for (uint256 i = 0; i < 10; i++) {\r\n            beekeeperAddresses[i] = _ganacheAddresses[i];\r\n        }\r\n    }\r\n\r\n    // Function to register a beekeeper with a specified Ethereum address\r\n    function registerBeekeeper(uint256 beekeeperId) external {\r\n        require(beekeeperId < 10, \"Beekeeper ID out of range\");\r\n        beekeepers[beekeeperId].beekeeperId = beekeeperId;\r\n        beekeepers[beekeeperId].beekeeperAddress = beekeeperAddresses[beekeeperId];\r\n    }\r\n\r\n    // Function to retrieve the Ethereum address of a beekeeper\r\n    function getBeekeeperAddress(uint256 beekeeperId) external view returns (address) {\r\n        require(beekeeperId < 10, \"Beekeeper ID out of range\");\r\n        return beekeeperAddresses[beekeeperId];\r\n    }\r\n\r\n    // fucntion to check the bees state normal or not according to the udage of pests or having diseases\r\n   function checkBeesState(uint hiveId) public returns (bool isOrganicHoney) {\r\n    //check the existence of the hive id \r\n    require(hives[hiveId].hiveId != 0, \"Hive does not exist\");\r\n    // update of the value of isBeesStateOkay according to the value of hasPestsOrDiseases\r\n    if (!hives[hiveId].hasPests) {\r\n        hives[hiveId].isOrganicHoney = true;\r\n      } else {\r\n        hives[hiveId].isOrganicHoney = false;\r\n      }\r\n    // after the traitment return the value of the isBeesState okay\r\n    return isOrganicHoney;\r\n   }\r\n    //check the value of the temperature sensor in acceptable range or not\r\n   function checkTemperatureSensorsValues(uint hiveId) public returns (bool isTemperatureOkay) {\r\n    //declare variables\r\n    uint minTemperature = 20;\r\n    uint maxTemperature = 30;\r\n    //check the existence of the hive id \r\n    require(hives[hiveId].hiveId != 0, \"Hive does not exist\");\r\n    // check the range of temperature coming for sensors \r\n    bool temperatureSensorState = (hives[hiveId].sensorTemperatureValue >= minTemperature) && (hives[hiveId].sensorTemperatureValue <= maxTemperature);\r\n    //check if the value of the humidity sensor is okay or not\r\n    if (temperatureSensorState) {\r\n        hives[hiveId].isTemperatureOkay = true;\r\n      } else {\r\n        hives[hiveId].isTemperatureOkay = false;\r\n      }\r\n    // after the traitment return the state of the temperature\r\n    return isTemperatureOkay;\r\n   }\r\n   //check the value of the humidty sensor in acceptable range or not\r\n   function checkHumiditySensorsValues(uint hiveId) public returns (bool isHumidityOkay) {\r\n    //declare variables\r\n    uint minHumidity = 40;\r\n    uint maxHumidity = 50;\r\n    //check the existence of the hive id \r\n    require(hives[hiveId].hiveId != 0, \"Hive does not exist\");\r\n    // check the range of humidity coming for sensors \r\n    bool humiditySensorState = (hives[hiveId].sensorHumidityValue >= minHumidity) && (hives[hiveId].sensorHumidityValue <= maxHumidity);\r\n    //check if the value of the humidity sensor is okay or not\r\n    if (humiditySensorState) {\r\n        hives[hiveId].isHumidityOkay = true;\r\n      } else {\r\n        hives[hiveId].isHumidityOkay = false;\r\n      }\r\n    // after the traitment return the state of the humidity\r\n    return isHumidityOkay;\r\n   }\r\n   //check the value of the co2  sensor in acceptable range or not\r\n   function checkCo2SensorsValues(uint hiveId) public returns (bool isCo2Okay) {\r\n    //declare variables\r\n    uint minCo2 = 60;\r\n    uint maxCo2 = 70;\r\n    //check the existence of the hive id \r\n    require(hives[hiveId].hiveId != 0, \"Hive does not exist\");\r\n    // check the range of co2 coming for sensors \r\n    bool co2SensorState = (hives[hiveId].sensorCO2Value >= minCo2) && (hives[hiveId].sensorCO2Value <= maxCo2);\r\n    //check if the value of the co2 sensor is okay or not\r\n    if (co2SensorState) {\r\n        hives[hiveId].isCo2Okay = true;\r\n      } else {\r\n        hives[hiveId].isCo2Okay = false;\r\n      }\r\n    // after the traitment return the state of the co2\r\n    return isCo2Okay;\r\n   }\r\n   //check the value of the weight sensor in acceptable range or not\r\n   function checkWeightSensorsValues(uint hiveId) public returns (bool isWeightOkay) {\r\n    //declare variables\r\n    uint minWeight = 80;\r\n    uint maxWeight = 90;\r\n    //check the existence of the hive id \r\n    require(hives[hiveId].hiveId != 0, \"Hive does not exist\");\r\n    // check the range of co2 coming for sensors \r\n    bool weightSensorState = (hives[hiveId].sensorWeightValue >= minWeight) && (hives[hiveId].sensorWeightValue <= maxWeight);\r\n    //check if the value of the co2 sensor is okay or not\r\n    if (weightSensorState) {\r\n        hives[hiveId].isWeightOkay = true;\r\n      } else {\r\n        hives[hiveId].isWeightOkay = false;\r\n      }\r\n    // after the traitment return the state of the weight\r\n    return isWeightOkay;\r\n   }\r\n   // function to check the quality of honey organic or not according to the return of the previous function and the sensors informations\r\n   function checkHoneyQuality(uint hiveId) public returns (bool isBeesStateOkay) {\r\n     // have the value of the return of the function checkBeesState to use its return value\r\n     bool beesState = checkBeesState(hiveId);\r\n     bool temperatureState = checkTemperatureSensorsValues(hiveId);\r\n     bool humidityState = checkHumiditySensorsValues(hiveId);\r\n     bool co2State = checkCo2SensorsValues(hiveId);\r\n     bool weightState = checkWeightSensorsValues(hiveId);\r\n     bool has_diseases = hives[hiveId].hasDiseases;\r\n     //check if all there bool variables returns true then honey is organic \r\n     if (beesState && temperatureState && humidityState && co2State && weightState && has_diseases) {\r\n         hives[hiveId].isBeesStateOkay = true;\r\n     } else {\r\n         hives[hiveId].isBeesStateOkay = false;\r\n     }\r\n     return isBeesStateOkay;\r\n   }\r\n}\r\n\r\n\r\n\r\n",
  "sourcePath": "C:/Users/asmab/Desktop/pfe/project/honey-blockchain/contracts/BeekeeperContract.sol",
  "compiler": {
    "name": "solc",
    "version": "0.5.0+commit.1d4f565a.Emscripten.clang"
  },
  "schemaVersion": "3.0.1",
  "updatedAt": "2024-04-14T13:42:13.198Z",
  "devdoc": {
    "methods": {}
  },
  "userdoc": {
    "methods": {}
  }
}