{
  "contractName": "BeekeeperContract",
  "abi": [
    {
      "inputs": [
        {
          "name": "_ganacheAddresses",
          "type": "address[]"
        }
      ],
      "payable": false,
      "stateMutability": "nonpayable",
      "type": "constructor",
      "signature": "constructor"
    },
    {
      "anonymous": false,
      "inputs": [
        {
          "indexed": false,
          "name": "beekeeperId",
          "type": "uint256"
        },
        {
          "indexed": false,
          "name": "beekeeperAddress",
          "type": "address"
        }
      ],
      "name": "beekeeperIdBeekeeperAddress",
      "type": "event",
      "signature": "0x82fc758beb45430ad6779b890bace00d6cc0f9f5027be9f7b097331c465b1863"
    },
    {
      "anonymous": false,
      "inputs": [
        {
          "indexed": false,
          "name": "hiveId",
          "type": "uint256"
        },
        {
          "indexed": false,
          "name": "beekeeperId",
          "type": "uint256"
        }
      ],
      "name": "HiveRegistered",
      "type": "event",
      "signature": "0xe458092b1f1c022caae76653a64f268909048339ac295dc5e54b1444eef92555"
    },
    {
      "constant": false,
      "inputs": [
        {
          "name": "beekeeperId",
          "type": "uint256"
        }
      ],
      "name": "registerBeekeeper",
      "outputs": [],
      "payable": false,
      "stateMutability": "nonpayable",
      "type": "function",
      "signature": "0x59f606c3"
    },
    {
      "constant": false,
      "inputs": [
        {
          "name": "beekeeperId",
          "type": "uint256"
        }
      ],
      "name": "getBeekeeperAddress",
      "outputs": [
        {
          "name": "",
          "type": "address"
        }
      ],
      "payable": false,
      "stateMutability": "nonpayable",
      "type": "function",
      "signature": "0xb137ca64"
    },
    {
      "constant": false,
      "inputs": [
        {
          "name": "hiveId",
          "type": "uint256"
        },
        {
          "name": "beekeeperId",
          "type": "uint256"
        }
      ],
      "name": "registerHive",
      "outputs": [],
      "payable": false,
      "stateMutability": "nonpayable",
      "type": "function",
      "signature": "0x520e6dee"
    },
    {
      "constant": false,
      "inputs": [
        {
          "name": "hiveId",
          "type": "uint256"
        },
        {
          "name": "temperature",
          "type": "uint256"
        },
        {
          "name": "humidity",
          "type": "uint256"
        },
        {
          "name": "co2",
          "type": "uint256"
        },
        {
          "name": "weight",
          "type": "uint256"
        },
        {
          "name": "hasPests",
          "type": "bool"
        },
        {
          "name": "hasDiseases",
          "type": "bool"
        }
      ],
      "name": "processMetadata",
      "outputs": [
        {
          "name": "isBeesStateOkay",
          "type": "bool"
        },
        {
          "name": "isOrganicHoney",
          "type": "bool"
        },
        {
          "name": "isTemperatureOkay",
          "type": "bool"
        },
        {
          "name": "isHumidityOkay",
          "type": "bool"
        },
        {
          "name": "isCo2Okay",
          "type": "bool"
        },
        {
          "name": "isWeightOkay",
          "type": "bool"
        }
      ],
      "payable": false,
      "stateMutability": "nonpayable",
      "type": "function",
      "signature": "0xea68d0e4"
    }
  ],
  "bytecode": "0x608060405234801561001057600080fd5b506040516107cb3803806107cb8339810180604052602081101561003357600080fd5b81019080805164010000000081111561004b57600080fd5b8201602081018481111561005e57600080fd5b815185602082028301116401000000008211171561007b57600080fd5b5050929190505050600a8151101515156100f657604080517f08c379a000000000000000000000000000000000000000000000000000000000815260206004820152601f60248201527f496e73756666696369656e74206164647265737365732070726f766964656400604482015290519081900360640190fd5b60005b600a81101561015057818181518110151561011057fe5b6020908102919091018101516000838152600290925260409091208054600160a060020a031916600160a060020a039092169190911790556001016100f9565b505061066a806101616000396000f3fe6080604052600436106100615763ffffffff7c0100000000000000000000000000000000000000000000000000000000600035041663520e6dee811461006657806359f606c314610098578063b137ca64146100c2578063ea68d0e414610115575b600080fd5b34801561007257600080fd5b506100966004803603604081101561008957600080fd5b50803590602001356101a0565b005b3480156100a457600080fd5b50610096600480360360208110156100bb57600080fd5b503561027a565b3480156100ce57600080fd5b506100ec600480360360208110156100e557600080fd5b50356102e3565b6040805173ffffffffffffffffffffffffffffffffffffffff9092168252519081900360200190f35b34801561012157600080fd5b50610167600480360360e081101561013857600080fd5b5080359060208101359060408101359060608101359060808101359060a081013515159060c0013515156103a6565b604080519615158752941515602087015292151585850152901515606085015215156080840152151560a0830152519081900360c00190f35b6000818152602081905260409020541515610205576040805160e560020a62461bcd02815260206004820152601860248201527f4265656b656570657220646f6573206e6f742065786973740000000000000000604482015290519081900360640190fd5b6000828152600160208181526040808420868155808401869055858552848352818520840180549485018155855293829020909201859055815185815290810184905281517fe458092b1f1c022caae76653a64f268909048339ac295dc5e54b1444eef92555929181900390910190a1505050565b600a81106102d2576040805160e560020a62461bcd02815260206004820152601960248201527f4265656b6565706572204944206f7574206f662072616e676500000000000000604482015290519081900360640190fd5b600081815260208190526040902055565b6000600a821061033d576040805160e560020a62461bcd02815260206004820152601960248201527f4265656b6565706572204944206f7574206f662072616e676500000000000000604482015290519081900360640190fd5b60008281526002602090815260409182902054825185815273ffffffffffffffffffffffffffffffffffffffff909116918101829052825191927f82fc758beb45430ad6779b890bace00d6cc0f9f5027be9f7b097331c465b186392918290030190a192915050565b600087815260016020526040812054819081908190819081901515610415576040805160e560020a62461bcd02815260206004820152601360248201527f4869766520646f6573206e6f7420657869737400000000000000000000000000604482015290519081900360640190fd5b60008d8152600160205260409020600281018d9055600381018c9055600481018b9055600581018a905560068101805460ff19168a15151761ff0019166101008a158015919091029190911790915561047b5760068101805462ff00001916905561048f565b60068101805462ff00001916620100001790555b88156104a95760068101805463ff000000191690556104bf565b60068101805463ff000000191663010000001790555b601e8d101580156104d1575060238d11155b156104f25760068101805464ff000000001916640100000000179055610503565b60068101805464ff00000000191690555b605a8c101580156105155750605f8c11155b156105385760068101805465ff000000000019166501000000000017905561054a565b60068101805465ff0000000000191690555b6103e88b1015801561055e5750610fa08b11155b156105835760068101805466ff00000000000019166601000000000000179055610596565b60068101805466ff000000000000191690555b601e8a101580156105a8575060508a11155b156105cf5760068101805467ff0000000000000019166701000000000000001790556105e3565b60068101805467ff00000000000000191690555b6006015460ff62010000820481169f6301000000830482169f50640100000000830482169e5065010000000000830482169d506601000000000000830482169c5067010000000000000090920416995097505050505050505056fea165627a7a7230582019a4cee0633a50d4625d4c7fb599c682c1df6d354af00ff6dc997468635252d60029",
  "source": "// SPDX-License-Identifier: SEE LICENSE IN LICENSE\r\npragma solidity ^0.5.0;\r\n\r\ncontract BeekeeperContract {\r\n   // structure of the beekeepers\r\n   struct Beekeeper {\r\n    uint beekeeperId;\r\n    uint[] hiveIds;\r\n    address beekeeperAddress;\r\n   }\r\n   //structure of the hives\r\n   struct Hive {\r\n    uint hiveId;\r\n    uint beekeeperId; \r\n    uint sensorTemperatureValue;\r\n    uint sensorHumidityValue;\r\n    uint sensorCO2Value;\r\n    uint sensorWeightValue;\r\n    bool hasPests;\r\n    bool hasDiseases;\r\n    bool isBeesStateOkay;\r\n    bool isOrganicHoney;\r\n    bool isTemperatureOkay;\r\n    bool isHumidityOkay;\r\n    bool isCo2Okay;\r\n    bool isWeightOkay;\r\n   }\r\n    // mapping both beekeepers and hives\r\n    mapping(uint => Beekeeper) beekeepers;\r\n    mapping(uint => Hive) hives;\r\n    mapping(uint256 => address) private beekeeperAddresses;\r\n\r\n    //Event to emit the association beekeeperId and Beekeeper address\r\n     event beekeeperIdBeekeeperAddress(uint256 beekeeperId, address beekeeperAddress);\r\n     //event to emit the hiveIds when a new hive is registered and link them to a beekeeper\r\n     event HiveRegistered(uint hiveId, uint beekeeperId);\r\n\r\n    constructor(address[] memory _ganacheAddresses) public {\r\n        require(_ganacheAddresses.length >= 10, \"Insufficient addresses provided\");\r\n\r\n        // Assign each Beekeeper ID to one of the Ganache addresses\r\n        for (uint256 i = 0; i < 10; i++) {\r\n            beekeeperAddresses[i] = _ganacheAddresses[i];\r\n        }\r\n    }\r\n\r\n    // Function to register a beekeeper with a specified Ethereum address\r\n    function registerBeekeeper(uint256 beekeeperId) external {\r\n        require(beekeeperId < 10, \"Beekeeper ID out of range\");\r\n        beekeepers[beekeeperId].beekeeperId = beekeeperId;\r\n    }\r\n\r\n    // Function to retrieve the Ethereum address of a beekeeper based on the beekeeperId\r\n    function getBeekeeperAddress(uint256 beekeeperId) external returns (address) {\r\n        require(beekeeperId < 10, \"Beekeeper ID out of range\");\r\n        address beekeeperAddress = beekeeperAddresses[beekeeperId];\r\n        emit beekeeperIdBeekeeperAddress(beekeeperId, beekeeperAddress);\r\n        return beekeeperAddress;\r\n    }\r\n    // Function to register a hive and link it to a beekeeperId \r\n    function registerHive(uint256 hiveId, uint256 beekeeperId) external {\r\n        require(beekeepers[beekeeperId].beekeeperId != 0, \"Beekeeper does not exist\");\r\n        Hive storage hive = hives[hiveId];\r\n        hive.hiveId = hiveId;\r\n        hive.beekeeperId = beekeeperId;\r\n        beekeepers[beekeeperId].hiveIds.push(hiveId);\r\n        emit HiveRegistered(hiveId, beekeeperId);\r\n    }\r\n    // Function to process metadata, associate them to the declared data of hive struct and update hive state\r\n    function processMetadata(uint256 hiveId,uint256 temperature,uint256 humidity,uint256 co2,uint256 weight,bool hasPests,bool hasDiseases) external \r\n    returns (bool isBeesStateOkay, bool isOrganicHoney, bool isTemperatureOkay, bool isHumidityOkay, bool isCo2Okay, bool isWeightOkay) {\r\n        require(hives[hiveId].hiveId != 0, \"Hive does not exist\");\r\n        Hive storage hive = hives[hiveId];\r\n        // assing the received metadata to its equivalent in the hive struct\r\n        hive.sensorTemperatureValue = temperature;\r\n        hive.sensorHumidityValue = humidity;\r\n        hive.sensorCO2Value = co2;\r\n        hive.sensorWeightValue = weight;\r\n        hive.hasPests = hasPests;\r\n        hive.hasDiseases = hasDiseases;\r\n        // Update hive state based on sensor values and other conditions using if statements\r\n        if (hasDiseases) { hive.isBeesStateOkay = false;} \r\n        else {hive.isBeesStateOkay = true;}\r\n\r\n        if (hasPests) { hive.isOrganicHoney = false;} \r\n        else {hive.isOrganicHoney = true;}\r\n\r\n        if (temperature >= 30 && temperature <= 35) { hive.isTemperatureOkay = true;} \r\n        else { hive.isTemperatureOkay = false;}\r\n        \r\n        if (humidity >= 90 && humidity <= 95) { hive.isHumidityOkay = true;} \r\n        else { hive.isHumidityOkay = false;}\r\n\r\n        if (co2 >= 1000 && co2 <= 4000) { hive.isCo2Okay = true;} \r\n        else { hive.isCo2Okay = false;}\r\n\r\n        if (weight >= 30 && weight <= 80) { hive.isWeightOkay = true;} \r\n        else { hive.isWeightOkay = false;}\r\n\r\n        // Return the updated hive state values\r\n    return ( hive.isBeesStateOkay, hive.isOrganicHoney, hive.isTemperatureOkay, hive.isHumidityOkay, hive.isCo2Okay, hive.isWeightOkay);\r\n    }\r\n}\r\n\r\n\r\n\r\n",
  "sourcePath": "C:/Users/asmab/Desktop/pfe/project/honey-blockchain/contracts/BeekeeperContract.sol",
  "compiler": {
    "name": "solc",
    "version": "0.5.0+commit.1d4f565a.Emscripten.clang"
  },
  "schemaVersion": "3.0.1",
  "updatedAt": "2024-06-03T21:09:33.151Z",
  "devdoc": {
    "methods": {}
  },
  "userdoc": {
    "methods": {}
  }
}