{
  "contractName": "HashStorage",
  "abi": [
    {
      "constant": true,
      "inputs": [
        {
          "name": "",
          "type": "uint256"
        }
      ],
      "name": "identifiers",
      "outputs": [
        {
          "name": "",
          "type": "uint256"
        }
      ],
      "payable": false,
      "stateMutability": "view",
      "type": "function",
      "signature": "0x28f2d4da"
    },
    {
      "constant": true,
      "inputs": [],
      "name": "numHashes",
      "outputs": [
        {
          "name": "",
          "type": "uint256"
        }
      ],
      "payable": false,
      "stateMutability": "view",
      "type": "function",
      "signature": "0x348a71cb"
    },
    {
      "constant": true,
      "inputs": [
        {
          "name": "",
          "type": "uint256"
        }
      ],
      "name": "hashes",
      "outputs": [
        {
          "name": "ipfsHash",
          "type": "bytes32"
        },
        {
          "name": "beekeeperAddress",
          "type": "address"
        }
      ],
      "payable": false,
      "stateMutability": "view",
      "type": "function",
      "signature": "0x501895ae"
    },
    {
      "constant": true,
      "inputs": [],
      "name": "owner",
      "outputs": [
        {
          "name": "",
          "type": "address"
        }
      ],
      "payable": false,
      "stateMutability": "view",
      "type": "function",
      "signature": "0x8da5cb5b"
    },
    {
      "inputs": [],
      "payable": false,
      "stateMutability": "nonpayable",
      "type": "constructor",
      "signature": "constructor"
    },
    {
      "anonymous": false,
      "inputs": [
        {
          "indexed": false,
          "name": "identifier",
          "type": "uint256"
        },
        {
          "indexed": false,
          "name": "ipfsHash",
          "type": "bytes32"
        },
        {
          "indexed": false,
          "name": "beekeeperAddress",
          "type": "address"
        }
      ],
      "name": "IPFSHashStored",
      "type": "event",
      "signature": "0xeddf90fb4d429d6e11c3f8d4bc25d13f9c5c5ddeba83d8424855e26b63efc07d"
    },
    {
      "anonymous": false,
      "inputs": [
        {
          "indexed": false,
          "name": "beekeeperAddress",
          "type": "address"
        },
        {
          "indexed": false,
          "name": "retrievedHash",
          "type": "bytes32"
        }
      ],
      "name": "IPFSHashRetrieved",
      "type": "event",
      "signature": "0x563ae633124fcca5751b2baf6d55ce4cf2f88c8814819ac3b20d99a6111c5bad"
    },
    {
      "constant": false,
      "inputs": [
        {
          "name": "ipfsHash",
          "type": "bytes32"
        }
      ],
      "name": "storeIPFSHash",
      "outputs": [],
      "payable": false,
      "stateMutability": "nonpayable",
      "type": "function",
      "signature": "0xcd6f27a5"
    },
    {
      "constant": false,
      "inputs": [
        {
          "name": "beekeeperAddress",
          "type": "address"
        }
      ],
      "name": "getIPFSHashByBeekeeperAddress",
      "outputs": [],
      "payable": false,
      "stateMutability": "nonpayable",
      "type": "function",
      "signature": "0x6890f368"
    }
  ],
  "bytecode": "0x608060405234801561001057600080fd5b5060008054600160a060020a031916331790556104cb806100326000396000f3fe6080604052600436106100775763ffffffff7c010000000000000000000000000000000000000000000000000000000060003504166328f2d4da811461007c578063348a71cb146100b8578063501895ae146100cd5780636890f368146101185780638da5cb5b1461014d578063cd6f27a51461017e575b600080fd5b34801561008857600080fd5b506100a66004803603602081101561009f57600080fd5b50356101a8565b60408051918252519081900360200190f35b3480156100c457600080fd5b506100a66101c7565b3480156100d957600080fd5b506100f7600480360360208110156100f057600080fd5b50356101cd565b60408051928352600160a060020a0390911660208301528051918290030190f35b34801561012457600080fd5b5061014b6004803603602081101561013b57600080fd5b5035600160a060020a03166101ef565b005b34801561015957600080fd5b50610162610342565b60408051600160a060020a039092168252519081900360200190f35b34801561018a57600080fd5b5061014b600480360360208110156101a157600080fd5b5035610351565b60028054829081106101b657fe5b600091825260209091200154905081565b60015481565b60036020526000908152604090208054600190910154600160a060020a031682565b600160a060020a038116151561028c57604080517f08c379a000000000000000000000000000000000000000000000000000000000815260206004820152602160248201527f4265656b656570657220616464726573732063616e6e6f7420626520656d707460448201527f7900000000000000000000000000000000000000000000000000000000000000606482015290519081900360840190fd5b60005b60025481101561033e5760006002828154811015156102aa57fe5b60009182526020808320909101548083526003909152604090912060010154909150600160a060020a03908116908416141561033557600081815260036020908152604091829020548251600160a060020a0387168152918201819052825190927f563ae633124fcca5751b2baf6d55ce4cf2f88c8814819ac3b20d99a6111c5bad928290030190a1505b5060010161028f565b5050565b600054600160a060020a031681565b60408051336c0100000000000000000000000081026020808401919091524260348085019190915284518085039091018152605490930190935281519190920120600061039d82610471565b604080518082018252868152600160a060020a038087166020808401828152600087815260038352868120955186559051600195860180549190951673ffffffffffffffffffffffffffffffffffffffff19909116179093556002805494850181559092527f405787fa12a823e0f2b7631cc41b3ba8828b3321ca811111fa75cd3aa3bb5ace90920184905582518481529081018890528083019190915290519192507feddf90fb4d429d6e11c3f8d4bc25d13f9c5c5ddeba83d8424855e26b63efc07d919081900360600190a150505050565b604080514260208083019190915281830193909352815180820383018152606090910190915280519101209056fea165627a7a723058207374d26fe19c2cc38e8d500c4b684486cca389787e0f1945fc21139a1b9b15840029",
  "source": "// SPDX-License-Identifier: SEE LICENSE IN LICENSE\r\npragma solidity ^0.5.0;\r\n\r\n//import \"./BeekeeperContract.sol\";\r\n\r\ncontract HashStorage {\r\n    address public owner;\r\n    uint256 public numHashes;\r\n    uint256[] public identifiers; // Array to keep track of keys\r\n    //BeekeeperContract public beekeeperContract;// Reference to the BeekeeperContract's address\r\n    struct HashInfo { \r\n        bytes32 ipfsHash; \r\n        address beekeeperAddress;\r\n    }\r\n    mapping(uint256 => HashInfo) public hashes;\r\n\r\n    // Event to emit the stored IPFS hash\r\n    event IPFSHashStored(uint256 identifier, bytes32 ipfsHash, address beekeeperAddress);\r\n    // Event to signal the retrieval of the on-chain IPFS hash associated with a beekeeper address\r\n    event IPFSHashRetrieved(address beekeeperAddress, bytes32 retrievedHash);\r\n\r\n    modifier onlyOwner() {\r\n        require(msg.sender == owner, \"Only the owner can call this function\");\r\n        _;\r\n    }\r\n    //constructor(address _beekeeperContractAddress)\r\n    constructor() public{\r\n        owner = msg.sender;\r\n        //beekeeperContract = BeekeeperContract(_beekeeperContractAddress); // Initialize the BeekeeperContract instance\r\n    }\r\n\r\n     // Function to generate an identifier based on timestamp and transaction hash\r\n    function generateIdentifier(bytes32 transactionHash) private view returns (uint256) {\r\n        uint256 timestamp = block.timestamp; // Get current timestamp\r\n        return uint256(keccak256(abi.encodePacked(timestamp, transactionHash))); // Combine timestamp and transaction hash\r\n    }\r\n\r\n    // Function to store an IPFS hash\r\n    function storeIPFSHash(bytes32 ipfsHash) external {\r\n        require(ipfsHash.length > 0, \"IPFS hash cannot be empty\");\r\n        address beekeeperAddress = msg.sender; // Obtain beekeeper's Ethereum address\r\n        bytes32 transactionHash = keccak256(abi.encodePacked(msg.sender, now));\r\n        uint256 identifier = generateIdentifier(transactionHash); // Associate the Generated identifier with each hash\r\n        hashes[identifier] = HashInfo(ipfsHash, beekeeperAddress); // Store the hash information along with the beekeeper's Ethereum address in the mapping\r\n        identifiers.push(identifier); // Store the identifier in the array\r\n        // Emit the IPFS hash stored event\r\n        emit IPFSHashStored(identifier, ipfsHash, beekeeperAddress);\r\n    }\r\n\r\n    // Function to retrieve the stored on-chain IPFS hash associated with a beekeeper address coming from metamask\r\n    function getIPFSHashByBeekeeperAddress(address beekeeperAddress) external {\r\n        require(beekeeperAddress != address(0), \"Beekeeper address cannot be empty\");\r\n        for (uint256 i = 0; i <identifiers.length; i++) {\r\n            uint256 identifier = identifiers[i];\r\n           if (hashes[identifier].beekeeperAddress == beekeeperAddress) {\r\n               bytes32 retrievedHash = hashes[identifier].ipfsHash;\r\n               emit IPFSHashRetrieved(beekeeperAddress, retrievedHash);\r\n            }\r\n        }\r\n    }\r\n}",
  "sourcePath": "C:/Users/asmab/Desktop/pfe/project/honey-blockchain/contracts/StoreHashContract.sol",
  "compiler": {
    "name": "solc",
    "version": "0.5.0+commit.1d4f565a.Emscripten.clang"
  },
  "schemaVersion": "3.0.1",
  "updatedAt": "2024-05-19T18:30:07.529Z",
  "devdoc": {
    "methods": {}
  },
  "userdoc": {
    "methods": {}
  }
}