{
  "contractName": "HashStorage",
  "abi": [
    {
      "constant": true,
      "inputs": [],
      "name": "owner",
      "outputs": [
        {
          "name": "",
          "type": "address"
        }
      ],
      "payable": false,
      "stateMutability": "view",
      "type": "function"
    },
    {
      "inputs": [],
      "payable": false,
      "stateMutability": "nonpayable",
      "type": "constructor"
    },
    {
      "constant": false,
      "inputs": [
        {
          "name": "ipfsHash",
          "type": "bytes32"
        }
      ],
      "name": "storeIPFSHash",
      "outputs": [],
      "payable": false,
      "stateMutability": "nonpayable",
      "type": "function"
    },
    {
      "constant": true,
      "inputs": [],
      "name": "retrieveAllHashes",
      "outputs": [
        {
          "name": "",
          "type": "bytes32[]"
        }
      ],
      "payable": false,
      "stateMutability": "view",
      "type": "function"
    }
  ],
  "bytecode": "0x6080604052600160025534801561001557600080fd5b50336000806101000a81548173ffffffffffffffffffffffffffffffffffffffff021916908373ffffffffffffffffffffffffffffffffffffffff1602179055506103d3806100656000396000f3fe608060405260043610610057576000357c0100000000000000000000000000000000000000000000000000000000900463ffffffff1680634c46f9ae1461005c5780638da5cb5b146100c8578063cd6f27a51461011f575b600080fd5b34801561006857600080fd5b5061007161015a565b6040518080602001828103825283818151815260200191508051906020019060200280838360005b838110156100b4578082015181840152602081019050610099565b505050509050019250505060405180910390f35b3480156100d457600080fd5b506100dd6101ed565b604051808273ffffffffffffffffffffffffffffffffffffffff1673ffffffffffffffffffffffffffffffffffffffff16815260200191505060405180910390f35b34801561012b57600080fd5b506101586004803603602081101561014257600080fd5b8101908080359060200190929190505050610212565b005b6060806001600254036040519080825280602002602001820160405280156101915781602001602082028038833980820191505090505b5090506000600190505b6002548110156101e557600160008281526020019081526020016000205482600183038151811015156101ca57fe5b9060200190602002018181525050808060010191505061019b565b508091505090565b6000809054906101000a900473ffffffffffffffffffffffffffffffffffffffff1681565b6000809054906101000a900473ffffffffffffffffffffffffffffffffffffffff1673ffffffffffffffffffffffffffffffffffffffff163373ffffffffffffffffffffffffffffffffffffffff161415156102fc576040517f08c379a00000000000000000000000000000000000000000000000000000000081526004018080602001828103825260258152602001807f4f6e6c7920746865206f776e65722063616e2063616c6c20746869732066756e81526020017f6374696f6e00000000000000000000000000000000000000000000000000000081525060400191505060405180910390fd5b6000602060ff16111515610378576040517f08c379a00000000000000000000000000000000000000000000000000000000081526004018080602001828103825260198152602001807f4950465320686173682063616e6e6f7420626520656d7074790000000000000081525060200191505060405180910390fd5b80600160006002548152602001908152602001600020819055506002600081548092919060010191905055505056fea165627a7a72305820ed55bff94d758e413f120573cda30a3206c40158c906dc1ffcae499479781e220029",
  "source": "// SPDX-License-Identifier: SEE LICENSE IN LICENSE\r\npragma solidity ^0.5.0;\r\n\r\ncontract HashStorage {\r\n    address public owner;\r\n    mapping(uint256 => bytes32) private hashes;\r\n    uint256 private nextHashId = 1;\r\n\r\n    modifier onlyOwner() {\r\n        require(msg.sender == owner, \"Only the owner can call this function\");\r\n        _;\r\n    }\r\n\r\n    constructor() public{\r\n        owner = msg.sender;\r\n    }\r\n\r\n    // Function to store an IPFS hash\r\n    function storeIPFSHash(bytes32 ipfsHash) external onlyOwner {\r\n        require(ipfsHash.length > 0, \"IPFS hash cannot be empty\");\r\n        hashes[nextHashId] = ipfsHash;\r\n        nextHashId++;\r\n    }\r\n\r\n    // Function to retrieve all stored IPFS hashes\r\n    function retrieveAllHashes() external view returns (bytes32[] memory) {\r\n        bytes32[] memory storedHashes = new bytes32[](nextHashId - 1);\r\n        for (uint256 i = 1; i < nextHashId; i++) {\r\n            storedHashes[i - 1] = hashes[i];\r\n        }\r\n        return storedHashes;\r\n    }\r\n}",
  "sourcePath": "C:/Users/asmab/Desktop/pds/honey-blockchain/contracts/StoreHashContract.sol",
  "compiler": {
    "name": "solc",
    "version": "0.5.0+commit.1d4f565a.Emscripten.clang"
  },
  "schemaVersion": "3.0.1",
  "updatedAt": "2024-01-09T23:29:26.876Z",
  "devdoc": {
    "methods": {}
  },
  "userdoc": {
    "methods": {}
  }
}