{
  "contractName": "HashStorage",
  "abi": [
    {
      "constant": true,
      "inputs": [],
      "name": "numHashes",
      "outputs": [
        {
          "name": "",
          "type": "uint256"
        }
      ],
      "payable": false,
      "stateMutability": "view",
      "type": "function",
      "signature": "0x348a71cb"
    },
    {
      "constant": true,
      "inputs": [
        {
          "name": "",
          "type": "uint256"
        }
      ],
      "name": "hashes",
      "outputs": [
        {
          "name": "ipfsHash",
          "type": "bytes32"
        },
        {
          "name": "beekeeperAddress",
          "type": "address"
        }
      ],
      "payable": false,
      "stateMutability": "view",
      "type": "function",
      "signature": "0x501895ae"
    },
    {
      "constant": true,
      "inputs": [],
      "name": "owner",
      "outputs": [
        {
          "name": "",
          "type": "address"
        }
      ],
      "payable": false,
      "stateMutability": "view",
      "type": "function",
      "signature": "0x8da5cb5b"
    },
    {
      "inputs": [],
      "payable": false,
      "stateMutability": "nonpayable",
      "type": "constructor",
      "signature": "constructor"
    },
    {
      "anonymous": false,
      "inputs": [
        {
          "indexed": false,
          "name": "identifier",
          "type": "uint256"
        },
        {
          "indexed": false,
          "name": "ipfsHash",
          "type": "bytes32"
        },
        {
          "indexed": false,
          "name": "beekeeperAddress",
          "type": "address"
        }
      ],
      "name": "IPFSHashStored",
      "type": "event",
      "signature": "0xeddf90fb4d429d6e11c3f8d4bc25d13f9c5c5ddeba83d8424855e26b63efc07d"
    },
    {
      "anonymous": false,
      "inputs": [
        {
          "indexed": false,
          "name": "beekeeperAddress",
          "type": "address"
        }
      ],
      "name": "BeekeeperAddressReceived",
      "type": "event",
      "signature": "0x0b821827c274bc9b7c169ce860a6722284123484ae37a87bb74de4abb67cb840"
    },
    {
      "anonymous": false,
      "inputs": [
        {
          "indexed": false,
          "name": "beekeeperAddress",
          "type": "address"
        },
        {
          "indexed": false,
          "name": "ipfsHash",
          "type": "bytes32"
        }
      ],
      "name": "IPFSHashRetrieved",
      "type": "event",
      "signature": "0x563ae633124fcca5751b2baf6d55ce4cf2f88c8814819ac3b20d99a6111c5bad"
    },
    {
      "constant": false,
      "inputs": [
        {
          "name": "beekeeperAddress",
          "type": "address"
        }
      ],
      "name": "storeBeekeeperAddress",
      "outputs": [],
      "payable": false,
      "stateMutability": "nonpayable",
      "type": "function",
      "signature": "0x8626c9b1"
    },
    {
      "constant": false,
      "inputs": [
        {
          "name": "ipfsHash",
          "type": "bytes32"
        }
      ],
      "name": "storeIPFSHash",
      "outputs": [],
      "payable": false,
      "stateMutability": "nonpayable",
      "type": "function",
      "signature": "0xcd6f27a5"
    },
    {
      "constant": false,
      "inputs": [
        {
          "name": "beekeeperAddress",
          "type": "address"
        }
      ],
      "name": "getIPFSHashByBeekeeperAddress",
      "outputs": [],
      "payable": false,
      "stateMutability": "nonpayable",
      "type": "function",
      "signature": "0x6890f368"
    }
  ],
  "bytecode": "0x608060405234801561001057600080fd5b5060008054600160a060020a031916331790556104ac806100326000396000f3fe6080604052600436106100775763ffffffff7c0100000000000000000000000000000000000000000000000000000000600035041663348a71cb811461007c578063501895ae146100a35780636890f368146100ee5780638626c9b1146101235780638da5cb5b14610156578063cd6f27a514610187575b600080fd5b34801561008857600080fd5b506100916101b1565b60408051918252519081900360200190f35b3480156100af57600080fd5b506100cd600480360360208110156100c657600080fd5b50356101b7565b60408051928352600160a060020a0390911660208301528051918290030190f35b3480156100fa57600080fd5b506101216004803603602081101561011157600080fd5b5035600160a060020a03166101d9565b005b34801561012f57600080fd5b506101216004803603602081101561014657600080fd5b5035600160a060020a031661026b565b34801561016257600080fd5b5061016b610350565b60408051600160a060020a039092168252519081900360200190f35b34801561019357600080fd5b50610121600480360360208110156101aa57600080fd5b503561035f565b60015481565b60026020526000908152604090208054600190910154600160a060020a031682565b60015b600154811161026757600081815260026020526040902060010154600160a060020a038381169116141561025f57600081815260026020908152604091829020548251600160a060020a0386168152918201819052825190927f563ae633124fcca5751b2baf6d55ce4cf2f88c8814819ac3b20d99a6111c5bad928290030190a1505b6001016101dc565b5050565b600160a060020a038116151561030857604080517f08c379a000000000000000000000000000000000000000000000000000000000815260206004820152602160248201527f4265656b656570657220616464726573732063616e6e6f7420626520656d707460448201527f7900000000000000000000000000000000000000000000000000000000000000606482015290519081900360840190fd5b60408051600160a060020a038316815290517f0b821827c274bc9b7c169ce860a6722284123484ae37a87bb74de4abb67cb8409181900360200190a161034d816101d9565b50565b600054600160a060020a031681565b60408051336c010000000000000000000000008102602080840191909152426034808501919091528451808503909101815260549093019093528151919092012060006103ab82610452565b604080518082018252868152600160a060020a0380871660208084018281526000878152600283528690209451855551600194850180549190941673ffffffffffffffffffffffffffffffffffffffff19909116179092558254830190925582518481529081018890528083019190915290519192507feddf90fb4d429d6e11c3f8d4bc25d13f9c5c5ddeba83d8424855e26b63efc07d919081900360600190a150505050565b604080514260208083019190915281830193909352815180820383018152606090910190915280519101209056fea165627a7a72305820b09cc5560b46e7c90c61319edd2ca01638815fd7e7d6d0f54eee89e969263e540029",
  "source": "// SPDX-License-Identifier: SEE LICENSE IN LICENSE\r\npragma solidity ^0.5.0;\r\n\r\n//import \"./BeekeeperContract.sol\";\r\n\r\ncontract HashStorage {\r\n    address public owner;\r\n    uint256 public numHashes;\r\n    //BeekeeperContract public beekeeperContract;// Reference to the BeekeeperContract's address\r\n    struct HashInfo { \r\n        bytes32 ipfsHash; \r\n        address beekeeperAddress;\r\n    }\r\n    mapping(uint256 => HashInfo) public hashes;\r\n\r\n    // Event to emit the stored IPFS hash\r\n    event IPFSHashStored(uint256 identifier, bytes32 ipfsHash, address beekeeperAddress);\r\n    // Event to signal receiving the beekeeper address\r\n    event BeekeeperAddressReceived(address beekeeperAddress);\r\n    // Event to signal the retrieval of the on-chain IPFS hash associated with a beekeeper address\r\n    event IPFSHashRetrieved(address beekeeperAddress, bytes32 ipfsHash);\r\n\r\n    modifier onlyOwner() {\r\n        require(msg.sender == owner, \"Only the owner can call this function\");\r\n        _;\r\n    }\r\n    //constructor(address _beekeeperContractAddress)\r\n    constructor() public{\r\n        owner = msg.sender;\r\n        //beekeeperContract = BeekeeperContract(_beekeeperContractAddress); // Initialize the BeekeeperContract instance\r\n    }\r\n\r\n    // Function to receive the beekeeper address from MetaMask  and trigger the IPFS hash retrieval\r\n    function storeBeekeeperAddress(address beekeeperAddress) public {\r\n        require(beekeeperAddress != address(0), \"Beekeeper address cannot be empty\");\r\n        // Emit an event to signal receiving the beekeeper address\r\n        emit BeekeeperAddressReceived(beekeeperAddress);\r\n        getIPFSHashByBeekeeperAddress(beekeeperAddress);\r\n    }\r\n\r\n     // Function to generate an identifier based on timestamp and transaction hash\r\n    function generateIdentifier(bytes32 transactionHash) private view returns (uint256) {\r\n        uint256 timestamp = block.timestamp; // Get current timestamp\r\n        return uint256(keccak256(abi.encodePacked(timestamp, transactionHash))); // Combine timestamp and transaction hash\r\n    }\r\n\r\n    // Function to store an IPFS hash\r\n    function storeIPFSHash(bytes32 ipfsHash) external {\r\n        require(ipfsHash.length > 0, \"IPFS hash cannot be empty\");\r\n        address beekeeperAddress = msg.sender; // Obtain beekeeper's Ethereum address\r\n        bytes32 transactionHash = keccak256(abi.encodePacked(msg.sender, now));\r\n        uint256 identifier = generateIdentifier(transactionHash); // Associate the Generated identifier with each hash\r\n        hashes[identifier] = HashInfo(ipfsHash, beekeeperAddress); // Store the hash information along with the beekeeper's Ethereum address in the mapping\r\n        numHashes++; // Increment the number of stored hashes\r\n        // Emit the IPFS hash stored event\r\n        emit IPFSHashStored(identifier, ipfsHash, beekeeperAddress);\r\n    }\r\n\r\n    // Function to retrieve the stored on-chain IPFS hash associated with a beekeeper address \r\n    function getIPFSHashByBeekeeperAddress(address beekeeperAddress) public{\r\n    for (uint256 i = 1; i <= numHashes; i++) {\r\n        if (hashes[i].beekeeperAddress == beekeeperAddress) {\r\n            bytes32 retrievedHash = hashes[i].ipfsHash;\r\n            emit IPFSHashRetrieved(beekeeperAddress, retrievedHash);\r\n        }\r\n    }\r\n    \r\n}\r\n}",
  "sourcePath": "C:/Users/asmab/Desktop/pfe/project/honey-blockchain/contracts/StoreHashContract.sol",
  "compiler": {
    "name": "solc",
    "version": "0.5.0+commit.1d4f565a.Emscripten.clang"
  },
  "schemaVersion": "3.0.1",
  "updatedAt": "2024-05-02T10:21:07.177Z",
  "devdoc": {
    "methods": {}
  },
  "userdoc": {
    "methods": {}
  }
}