{
  "contractName": "HashStorage",
  "abi": [
    {
      "constant": true,
      "inputs": [
        {
          "name": "",
          "type": "uint256"
        }
      ],
      "name": "hashes",
      "outputs": [
        {
          "name": "ipfsHash",
          "type": "bytes32"
        },
        {
          "name": "beekeeperAddress",
          "type": "address"
        }
      ],
      "payable": false,
      "stateMutability": "view",
      "type": "function"
    },
    {
      "constant": true,
      "inputs": [],
      "name": "owner",
      "outputs": [
        {
          "name": "",
          "type": "address"
        }
      ],
      "payable": false,
      "stateMutability": "view",
      "type": "function"
    },
    {
      "inputs": [],
      "payable": false,
      "stateMutability": "nonpayable",
      "type": "constructor"
    },
    {
      "anonymous": false,
      "inputs": [
        {
          "indexed": false,
          "name": "identifier",
          "type": "uint256"
        },
        {
          "indexed": false,
          "name": "ipfsHash",
          "type": "bytes32"
        },
        {
          "indexed": false,
          "name": "beekeeperAddress",
          "type": "address"
        }
      ],
      "name": "IPFSHashStored",
      "type": "event"
    },
    {
      "constant": false,
      "inputs": [
        {
          "name": "ipfsHash",
          "type": "bytes32"
        }
      ],
      "name": "storeIPFSHash",
      "outputs": [],
      "payable": false,
      "stateMutability": "nonpayable",
      "type": "function"
    }
  ],
  "bytecode": "0x608060405234801561001057600080fd5b5060008054600160a060020a031916331790556102bb806100326000396000f3fe6080604052600436106100565763ffffffff7c0100000000000000000000000000000000000000000000000000000000600035041663501895ae811461005b5780638da5cb5b146100b3578063cd6f27a5146100f1575b600080fd5b34801561006757600080fd5b506100856004803603602081101561007e57600080fd5b503561011d565b6040805192835273ffffffffffffffffffffffffffffffffffffffff90911660208301528051918290030190f35b3480156100bf57600080fd5b506100c861014c565b6040805173ffffffffffffffffffffffffffffffffffffffff9092168252519081900360200190f35b3480156100fd57600080fd5b5061011b6004803603602081101561011457600080fd5b5035610168565b005b6001602081905260009182526040909120805491015473ffffffffffffffffffffffffffffffffffffffff1682565b60005473ffffffffffffffffffffffffffffffffffffffff1681565b60408051336c010000000000000000000000008102602080840191909152426034808501919091528451808503909101815260549093019093528151919092012060006101b482610261565b60408051808201825286815273ffffffffffffffffffffffffffffffffffffffff80871660208084018281526000878152600180845290879020955186559051940180549490931673ffffffffffffffffffffffffffffffffffffffff199094169390931790915582518481529182018890528183015290519192507feddf90fb4d429d6e11c3f8d4bc25d13f9c5c5ddeba83d8424855e26b63efc07d919081900360600190a150505050565b604080514260208083019190915281830193909352815180820383018152606090910190915280519101209056fea165627a7a72305820869071ccc95cda0274ca1222678faf4fdf57c80fb81ccc6cbcd066132e74072f0029",
  "source": "// SPDX-License-Identifier: SEE LICENSE IN LICENSE\r\npragma solidity ^0.5.0;\r\n\r\n//import \"./BeekeeperContract.sol\";\r\n\r\ncontract HashStorage {\r\n    address public owner;\r\n    //BeekeeperContract public beekeeperContract;// Reference to the BeekeeperContract's address\r\n    struct HashInfo { \r\n        bytes32 ipfsHash; \r\n        address beekeeperAddress;\r\n    }\r\n    mapping(uint256 => HashInfo) public hashes;\r\n\r\n    // Event to emit the stored IPFS hash\r\n    event IPFSHashStored(uint256 identifier, bytes32 ipfsHash, address beekeeperAddress);\r\n\r\n    modifier onlyOwner() {\r\n        require(msg.sender == owner, \"Only the owner can call this function\");\r\n        _;\r\n    }\r\n    //constructor(address _beekeeperContractAddress)\r\n    constructor() public{\r\n        owner = msg.sender;\r\n        //beekeeperContract = BeekeeperContract(_beekeeperContractAddress); // Initialize the BeekeeperContract instance\r\n    }\r\n\r\n     // Function to generate an identifier based on timestamp and transaction hash\r\n    function generateIdentifier(bytes32 transactionHash) private view returns (uint256) {\r\n        uint256 timestamp = block.timestamp; // Get current timestamp\r\n        return uint256(keccak256(abi.encodePacked(timestamp, transactionHash))); // Combine timestamp and transaction hash\r\n    }\r\n\r\n    /// Function to store an IPFS hash\r\n    function storeIPFSHash(bytes32 ipfsHash) external {\r\n        require(ipfsHash.length > 0, \"IPFS hash cannot be empty\");\r\n        address beekeeperAddress = msg.sender; // Obtain beekeeper's Ethereum address\r\n        bytes32 transactionHash = keccak256(abi.encodePacked(msg.sender, now));\r\n        uint256 identifier = generateIdentifier(transactionHash); // Associate the Generated identifier with each hash\r\n        hashes[identifier] = HashInfo(ipfsHash, beekeeperAddress); // Store the hash information along with the beekeeper's Ethereum address in the mapping\r\n        // Emit the IPFS hash stored event\r\n        emit IPFSHashStored(identifier, ipfsHash, beekeeperAddress);\r\n    }\r\n}",
  "sourcePath": "C:/Users/asmab/Desktop/pfe/project/honey-blockchain/contracts/StoreHashContract.sol",
  "compiler": {
    "name": "solc",
    "version": "0.5.0+commit.1d4f565a.Emscripten.clang"
  },
  "schemaVersion": "3.0.1",
  "updatedAt": "2024-04-14T13:08:29.414Z",
  "devdoc": {
    "methods": {}
  },
  "userdoc": {
    "methods": {
      "storeIPFSHash(bytes32)": {
        "notice": "Function to store an IPFS hash"
      }
    }
  }
}