{
  "contractName": "HashStorage",
  "abi": [
    {
      "constant": true,
      "inputs": [],
      "name": "owner",
      "outputs": [
        {
          "name": "",
          "type": "address"
        }
      ],
      "payable": false,
      "stateMutability": "view",
      "type": "function",
      "signature": "0x8da5cb5b"
    },
    {
      "inputs": [],
      "payable": false,
      "stateMutability": "nonpayable",
      "type": "constructor",
      "signature": "constructor"
    },
    {
      "constant": false,
      "inputs": [
        {
          "name": "ipfsHash",
          "type": "bytes32"
        }
      ],
      "name": "storeIPFSHash",
      "outputs": [],
      "payable": false,
      "stateMutability": "nonpayable",
      "type": "function",
      "signature": "0xcd6f27a5"
    },
    {
      "constant": true,
      "inputs": [],
      "name": "retrieveAllHashes",
      "outputs": [
        {
          "name": "",
          "type": "bytes32[]"
        }
      ],
      "payable": false,
      "stateMutability": "view",
      "type": "function",
      "signature": "0x4c46f9ae"
    }
  ],
  "bytecode": "0x6080604052600160025534801561001557600080fd5b5060008054600160a060020a0319163317905561020f806100376000396000f3fe6080604052600436106100565763ffffffff7c01000000000000000000000000000000000000000000000000000000006000350416634c46f9ae811461005b5780638da5cb5b146100c0578063cd6f27a5146100fe575b600080fd5b34801561006757600080fd5b5061007061012a565b60408051602080825283518183015283519192839290830191858101910280838360005b838110156100ac578181015183820152602001610094565b505050509050019250505060405180910390f35b3480156100cc57600080fd5b506100d56101a5565b6040805173ffffffffffffffffffffffffffffffffffffffff9092168252519081900360200190f35b34801561010a57600080fd5b506101286004803603602081101561012157600080fd5b50356101c1565b005b60608060016002540360405190808252806020026020018201604052801561015c578160200160208202803883390190505b50905060015b60025481101561019f5760008181526001602052604090205482518390600019840190811061018d57fe5b60209081029091010152600101610162565b50905090565b60005473ffffffffffffffffffffffffffffffffffffffff1681565b600280546000908152600160208190526040909120929092558054909101905556fea165627a7a723058204ae0be4748aa7678c3f3ad6d9060c46e361455008efa759de1a11f3ea78ec6830029",
  "source": "// SPDX-License-Identifier: SEE LICENSE IN LICENSE\r\npragma solidity ^0.5.0;\r\n\r\ncontract HashStorage {\r\n    address public owner;\r\n    mapping(uint256 => bytes32) private hashes;\r\n    uint256 private nextHashId = 1;\r\n\r\n    modifier onlyOwner() {\r\n        require(msg.sender == owner, \"Only the owner can call this function\");\r\n        _;\r\n    }\r\n\r\n    constructor() public{\r\n        owner = msg.sender;\r\n    }\r\n\r\n    // Function to store an IPFS hash\r\n    function storeIPFSHash(bytes32 ipfsHash) external {\r\n        require(ipfsHash.length > 0, \"IPFS hash cannot be empty\");\r\n        hashes[nextHashId] = ipfsHash;\r\n        nextHashId++;\r\n    }\r\n\r\n    // Function to retrieve all stored IPFS hashes\r\n    function retrieveAllHashes() external view returns (bytes32[] memory) {\r\n        bytes32[] memory storedHashes = new bytes32[](nextHashId - 1);\r\n        for (uint256 i = 1; i < nextHashId; i++) {\r\n            storedHashes[i - 1] = hashes[i];\r\n        }\r\n        return storedHashes;\r\n    }\r\n}",
  "sourcePath": "C:/Users/asmab/Desktop/pds/honey-blockchain/contracts/StoreHashContract.sol",
  "compiler": {
    "name": "solc",
    "version": "0.5.0+commit.1d4f565a.Emscripten.clang"
  },
  "schemaVersion": "3.0.1",
  "updatedAt": "2024-01-10T01:17:45.819Z",
  "devdoc": {
    "methods": {}
  },
  "userdoc": {
    "methods": {}
  }
}