{
  "contractName": "HashStorage",
  "abi": [
    {
      "constant": true,
      "inputs": [],
      "name": "beekeeperContract",
      "outputs": [
        {
          "name": "",
          "type": "address"
        }
      ],
      "payable": false,
      "stateMutability": "view",
      "type": "function",
      "signature": "0x28f98b36"
    },
    {
      "constant": true,
      "inputs": [],
      "name": "owner",
      "outputs": [
        {
          "name": "",
          "type": "address"
        }
      ],
      "payable": false,
      "stateMutability": "view",
      "type": "function",
      "signature": "0x8da5cb5b"
    },
    {
      "inputs": [
        {
          "name": "_beekeeperContractAddress",
          "type": "address"
        }
      ],
      "payable": false,
      "stateMutability": "nonpayable",
      "type": "constructor",
      "signature": "constructor"
    },
    {
      "anonymous": false,
      "inputs": [
        {
          "indexed": true,
          "name": "identifier",
          "type": "uint256"
        },
        {
          "indexed": false,
          "name": "ipfsHash",
          "type": "bytes32"
        }
      ],
      "name": "IPFSHashStored",
      "type": "event",
      "signature": "0x0466ab5b30b9c1174e980fbdf809d42ad42d8cfd72a2e6f8f73ff4501f6fbd09"
    },
    {
      "constant": false,
      "inputs": [
        {
          "name": "ipfsHash",
          "type": "bytes32"
        }
      ],
      "name": "storeIPFSHash",
      "outputs": [],
      "payable": false,
      "stateMutability": "nonpayable",
      "type": "function",
      "signature": "0xcd6f27a5"
    }
  ],
  "bytecode": "0x608060405234801561001057600080fd5b506040516020806102748339810180604052602081101561003057600080fd5b505160008054600160a060020a0319908116331790915560018054600160a060020a03909316929091169190911790556102058061006f6000396000f3fe6080604052600436106100565763ffffffff7c010000000000000000000000000000000000000000000000000000000060003504166328f98b36811461005b5780638da5cb5b14610099578063cd6f27a5146100ae575b600080fd5b34801561006757600080fd5b506100706100da565b6040805173ffffffffffffffffffffffffffffffffffffffff9092168252519081900360200190f35b3480156100a557600080fd5b506100706100f6565b3480156100ba57600080fd5b506100d8600480360360208110156100d157600080fd5b5035610112565b005b60015473ffffffffffffffffffffffffffffffffffffffff1681565b60005473ffffffffffffffffffffffffffffffffffffffff1681565b604080516c010000000000000000000000003302602080830191909152426034808401919091528351808403909101815260549092019092528051910120600061015b826101ab565b6000818152600360209081526040918290208690558151868152915192935083927f0466ab5b30b9c1174e980fbdf809d42ad42d8cfd72a2e6f8f73ff4501f6fbd099281900390910190a2505050565b604080514260208083019190915281830193909352815180820383018152606090910190915280519101209056fea165627a7a72305820eb7595258785291902b9ed2079c1b06be33734d39f10e530cff7a08cae96094f0029",
  "source": "// SPDX-License-Identifier: SEE LICENSE IN LICENSE\r\npragma solidity ^0.5.0;\r\n\r\nimport \"./BeekeeperContract.sol\";\r\n\r\ncontract HashStorage {\r\n    address public owner;\r\n    // Reference to the BeekeeperContract's addre\r\n    BeekeeperContract public beekeeperContract;\r\n    // Mapping to store beekeeper addresses to their identifiers \r\n    mapping(address => uint256) private beekeeperAddressesToIds; \r\n    mapping(uint256 => bytes32) private hashes;\r\n\r\n    // Event to emit the stored IPFS hash\r\n    event IPFSHashStored(uint256 indexed identifier, bytes32 ipfsHash);\r\n\r\n    modifier onlyOwner() {\r\n        require(msg.sender == owner, \"Only the owner can call this function\");\r\n        _;\r\n    }\r\n\r\n    constructor(address _beekeeperContractAddress) public{\r\n        owner = msg.sender;\r\n        beekeeperContract = BeekeeperContract(_beekeeperContractAddress); // Initialize the BeekeeperContract instance\r\n    }\r\n\r\n     // Function to generate an identifier based on timestamp and transaction hash\r\n    function generateIdentifier(bytes32 transactionHash) private view returns (uint256) {\r\n        uint256 timestamp = block.timestamp; // Get current timestamp\r\n        return uint256(keccak256(abi.encodePacked(timestamp, transactionHash))); // Combine timestamp and transaction hash\r\n    }\r\n\r\n    /// Function to store an IPFS hash\r\n    function storeIPFSHash(bytes32 ipfsHash) external {\r\n        require(ipfsHash.length > 0, \"IPFS hash cannot be empty\");\r\n        bytes32 transactionHash = keccak256(abi.encodePacked(msg.sender, now));\r\n        uint256 identifier = generateIdentifier(transactionHash); // Associate the Generated identifier with each hash\r\n        hashes[identifier] = ipfsHash;\r\n\r\n        // Emit the IPFS hash stored event\r\n        emit IPFSHashStored(identifier, ipfsHash);\r\n    }\r\n}",
  "sourcePath": "C:/Users/asmab/Desktop/pfe/project/honey-blockchain/contracts/StoreHashContract.sol",
  "compiler": {
    "name": "solc",
    "version": "0.5.0+commit.1d4f565a.Emscripten.clang"
  },
  "schemaVersion": "3.0.1",
  "updatedAt": "2024-04-13T19:32:07.742Z",
  "devdoc": {
    "methods": {}
  },
  "userdoc": {
    "methods": {
      "storeIPFSHash(bytes32)": {
        "notice": "Function to store an IPFS hash"
      }
    }
  }
}