{
  "contractName": "HashStorage",
  "abi": [
    {
      "constant": true,
      "inputs": [
        {
          "name": "",
          "type": "uint256"
        }
      ],
      "name": "hashes",
      "outputs": [
        {
          "name": "ipfsHash",
          "type": "bytes32"
        },
        {
          "name": "beekeeperAddress",
          "type": "address"
        }
      ],
      "payable": false,
      "stateMutability": "view",
      "type": "function",
      "signature": "0x501895ae"
    },
    {
      "constant": true,
      "inputs": [],
      "name": "owner",
      "outputs": [
        {
          "name": "",
          "type": "address"
        }
      ],
      "payable": false,
      "stateMutability": "view",
      "type": "function",
      "signature": "0x8da5cb5b"
    },
    {
      "inputs": [],
      "payable": false,
      "stateMutability": "nonpayable",
      "type": "constructor",
      "signature": "constructor"
    },
    {
      "anonymous": false,
      "inputs": [
        {
          "indexed": false,
          "name": "identifier",
          "type": "uint256"
        },
        {
          "indexed": false,
          "name": "ipfsHash",
          "type": "bytes32"
        },
        {
          "indexed": false,
          "name": "beekeeperAddress",
          "type": "address"
        }
      ],
      "name": "IPFSHashStored",
      "type": "event",
      "signature": "0xeddf90fb4d429d6e11c3f8d4bc25d13f9c5c5ddeba83d8424855e26b63efc07d"
    },
    {
      "anonymous": false,
      "inputs": [
        {
          "indexed": false,
          "name": "beekeeperAddress",
          "type": "address"
        }
      ],
      "name": "BeekeeperAddressReceived",
      "type": "event",
      "signature": "0x0b821827c274bc9b7c169ce860a6722284123484ae37a87bb74de4abb67cb840"
    },
    {
      "constant": false,
      "inputs": [
        {
          "name": "beekeeperAddress",
          "type": "address"
        }
      ],
      "name": "storeBeekeeperAddress",
      "outputs": [],
      "payable": false,
      "stateMutability": "nonpayable",
      "type": "function",
      "signature": "0x8626c9b1"
    },
    {
      "constant": false,
      "inputs": [
        {
          "name": "ipfsHash",
          "type": "bytes32"
        }
      ],
      "name": "storeIPFSHash",
      "outputs": [],
      "payable": false,
      "stateMutability": "nonpayable",
      "type": "function",
      "signature": "0xcd6f27a5"
    }
  ],
  "bytecode": "0x608060405234801561001057600080fd5b5060008054600160a060020a03191633179055610394806100326000396000f3fe6080604052600436106100615763ffffffff7c0100000000000000000000000000000000000000000000000000000000600035041663501895ae81146100665780638626c9b1146100b15780638da5cb5b146100e6578063cd6f27a514610117575b600080fd5b34801561007257600080fd5b506100906004803603602081101561008957600080fd5b5035610141565b60408051928352600160a060020a0390911660208301528051918290030190f35b3480156100bd57600080fd5b506100e4600480360360208110156100d457600080fd5b5035600160a060020a0316610163565b005b3480156100f257600080fd5b506100fb61023f565b60408051600160a060020a039092168252519081900360200190f35b34801561012357600080fd5b506100e46004803603602081101561013a57600080fd5b503561024e565b60016020819052600091825260409091208054910154600160a060020a031682565b600160a060020a038116151561020057604080517f08c379a000000000000000000000000000000000000000000000000000000000815260206004820152602160248201527f4265656b656570657220616464726573732063616e6e6f7420626520656d707460448201527f7900000000000000000000000000000000000000000000000000000000000000606482015290519081900360840190fd5b60408051600160a060020a038316815290517f0b821827c274bc9b7c169ce860a6722284123484ae37a87bb74de4abb67cb8409181900360200190a150565b600054600160a060020a031681565b60408051336c0100000000000000000000000081026020808401919091524260348085019190915284518085039091018152605490930190935281519190920120600061029a8261033a565b604080518082018252868152600160a060020a0380871660208084018281526000878152600180845290879020955186559051940180549490931673ffffffffffffffffffffffffffffffffffffffff199094169390931790915582518481529182018890528183015290519192507feddf90fb4d429d6e11c3f8d4bc25d13f9c5c5ddeba83d8424855e26b63efc07d919081900360600190a150505050565b604080514260208083019190915281830193909352815180820383018152606090910190915280519101209056fea165627a7a723058208e913aa1bae1de32d1909063a429a788dbc13d32009c3a37960cb4f2ab6b110a0029",
  "source": "// SPDX-License-Identifier: SEE LICENSE IN LICENSE\r\npragma solidity ^0.5.0;\r\n\r\n//import \"./BeekeeperContract.sol\";\r\n\r\ncontract HashStorage {\r\n    address public owner;\r\n    //BeekeeperContract public beekeeperContract;// Reference to the BeekeeperContract's address\r\n    struct HashInfo { \r\n        bytes32 ipfsHash; \r\n        address beekeeperAddress;\r\n    }\r\n    mapping(uint256 => HashInfo) public hashes;\r\n\r\n    // Event to emit the stored IPFS hash\r\n    event IPFSHashStored(uint256 identifier, bytes32 ipfsHash, address beekeeperAddress);\r\n\r\n    // Event to signal receiving the beekeeper address\r\n    event BeekeeperAddressReceived(address beekeeperAddress);\r\n\r\n    modifier onlyOwner() {\r\n        require(msg.sender == owner, \"Only the owner can call this function\");\r\n        _;\r\n    }\r\n    //constructor(address _beekeeperContractAddress)\r\n    constructor() public{\r\n        owner = msg.sender;\r\n        //beekeeperContract = BeekeeperContract(_beekeeperContractAddress); // Initialize the BeekeeperContract instance\r\n    }\r\n\r\n    // Function to receive the beekeeper address from MetaMask\r\n    function storeBeekeeperAddress(address beekeeperAddress) public {\r\n        require(beekeeperAddress != address(0), \"Beekeeper address cannot be empty\");\r\n        // Emit an event to signal receiving the beekeeper address\r\n        emit BeekeeperAddressReceived(beekeeperAddress);\r\n    }\r\n\r\n     // Function to generate an identifier based on timestamp and transaction hash\r\n    function generateIdentifier(bytes32 transactionHash) private view returns (uint256) {\r\n        uint256 timestamp = block.timestamp; // Get current timestamp\r\n        return uint256(keccak256(abi.encodePacked(timestamp, transactionHash))); // Combine timestamp and transaction hash\r\n    }\r\n\r\n    // Function to store an IPFS hash\r\n    function storeIPFSHash(bytes32 ipfsHash) external {\r\n        require(ipfsHash.length > 0, \"IPFS hash cannot be empty\");\r\n        address beekeeperAddress = msg.sender; // Obtain beekeeper's Ethereum address\r\n        bytes32 transactionHash = keccak256(abi.encodePacked(msg.sender, now));\r\n        uint256 identifier = generateIdentifier(transactionHash); // Associate the Generated identifier with each hash\r\n        hashes[identifier] = HashInfo(ipfsHash, beekeeperAddress); // Store the hash information along with the beekeeper's Ethereum address in the mapping\r\n        // Emit the IPFS hash stored event\r\n        emit IPFSHashStored(identifier, ipfsHash, beekeeperAddress);\r\n    }\r\n}",
  "sourcePath": "C:/Users/asmab/Desktop/pfe/project/honey-blockchain/contracts/StoreHashContract.sol",
  "compiler": {
    "name": "solc",
    "version": "0.5.0+commit.1d4f565a.Emscripten.clang"
  },
  "schemaVersion": "3.0.1",
  "updatedAt": "2024-04-15T22:20:26.150Z",
  "devdoc": {
    "methods": {}
  },
  "userdoc": {
    "methods": {}
  }
}