{
  "contractName": "HashStorage",
  "abi": [
    {
      "constant": true,
      "inputs": [],
      "name": "owner",
      "outputs": [
        {
          "name": "",
          "type": "address"
        }
      ],
      "payable": false,
      "stateMutability": "view",
      "type": "function",
      "signature": "0x8da5cb5b"
    },
    {
      "inputs": [],
      "payable": false,
      "stateMutability": "nonpayable",
      "type": "constructor",
      "signature": "constructor"
    },
    {
      "constant": false,
      "inputs": [
        {
          "name": "ipfsHash",
          "type": "bytes32"
        }
      ],
      "name": "storeIPFSHash",
      "outputs": [],
      "payable": false,
      "stateMutability": "nonpayable",
      "type": "function",
      "signature": "0xcd6f27a5"
    }
  ],
  "bytecode": "0x608060405234801561001057600080fd5b5060008054600160a060020a0319163317905561018f806100326000396000f3fe60806040526004361061004b5763ffffffff7c01000000000000000000000000000000000000000000000000000000006000350416638da5cb5b8114610050578063cd6f27a51461008e575b600080fd5b34801561005c57600080fd5b506100656100ba565b6040805173ffffffffffffffffffffffffffffffffffffffff9092168252519081900360200190f35b34801561009a57600080fd5b506100b8600480360360208110156100b157600080fd5b50356100d6565b005b60005473ffffffffffffffffffffffffffffffffffffffff1681565b604080516c010000000000000000000000003302602080830191909152426034808401919091528351808403909101815260549092019092528051910120600061011f82610135565b6000908152600160205260409020929092555050565b604080514260208083019190915281830193909352815180820383018152606090910190915280519101209056fea165627a7a723058202773bb8db851fc51858395fe31471b7becbacb2033143e593a2617dd055548ee0029",
  "source": "// SPDX-License-Identifier: SEE LICENSE IN LICENSE\r\npragma solidity ^0.5.0;\r\n\r\ncontract HashStorage {\r\n    address public owner;\r\n    mapping(uint256 => bytes32) private hashes;\r\n\r\n    modifier onlyOwner() {\r\n        require(msg.sender == owner, \"Only the owner can call this function\");\r\n        _;\r\n    }\r\n\r\n    constructor() public{\r\n        owner = msg.sender;\r\n    }\r\n\r\n     // Function to generate an identifier based on timestamp and transaction hash\r\n    function generateIdentifier(bytes32 transactionHash) private view returns (uint256) {\r\n        uint256 timestamp = block.timestamp; // Get current timestamp\r\n        return uint256(keccak256(abi.encodePacked(timestamp, transactionHash))); // Combine timestamp and transaction hash\r\n    }\r\n\r\n    /// Function to store an IPFS hash\r\n    function storeIPFSHash(bytes32 ipfsHash) external {\r\n        require(ipfsHash.length > 0, \"IPFS hash cannot be empty\");\r\n        bytes32 transactionHash = keccak256(abi.encodePacked(msg.sender, now));\r\n        uint256 identifier = generateIdentifier(transactionHash); // Associate the Generated identifier with each hash\r\n        hashes[identifier] = ipfsHash;\r\n    }\r\n}",
  "sourcePath": "C:/Users/asmab/Desktop/pfe/project/honey-blockchain/contracts/StoreHashContract.sol",
  "compiler": {
    "name": "solc",
    "version": "0.5.0+commit.1d4f565a.Emscripten.clang"
  },
  "schemaVersion": "3.0.1",
  "updatedAt": "2024-04-04T08:56:35.569Z",
  "devdoc": {
    "methods": {}
  },
  "userdoc": {
    "methods": {
      "storeIPFSHash(bytes32)": {
        "notice": "Function to store an IPFS hash"
      }
    }
  }
}